{
	"data": {
		"bytecode": {
			"linkReferences": {},
			"object": "60806040526001600055670de0b6b3a764000060015534801561002157600080fd5b50610121806100316000396000f3fe6080604052348015600f57600080fd5b506004361060465760003560e01c80633173d58914604b5780634fb2e0be14606b578063a1b1df9c146087578063d297a89f1460a7575b600080fd5b605160c3565b604051808215151515815260200191505060405180910390f35b607160d5565b6040518082815260200191505060405180910390f35b608d60db565b604051808215151515815260200191505060405180910390f35b60ad60e6565b6040518082815260200191505060405180910390f35b6000670de0b6b3a76400008014905090565b60005481565b600060018014905090565b6001548156fea265627a7a72315820d400db916af299cd9da7709d94751dc536a7864c1896fca3daa602c562bc1b5464736f6c63430005110032",
			"opcodes": "PUSH1 0x80 PUSH1 0x40 MSTORE PUSH1 0x1 PUSH1 0x0 SSTORE PUSH8 0xDE0B6B3A7640000 PUSH1 0x1 SSTORE CALLVALUE DUP1 ISZERO PUSH2 0x21 JUMPI PUSH1 0x0 DUP1 REVERT JUMPDEST POP PUSH2 0x121 DUP1 PUSH2 0x31 PUSH1 0x0 CODECOPY PUSH1 0x0 RETURN INVALID PUSH1 0x80 PUSH1 0x40 MSTORE CALLVALUE DUP1 ISZERO PUSH1 0xF JUMPI PUSH1 0x0 DUP1 REVERT JUMPDEST POP PUSH1 0x4 CALLDATASIZE LT PUSH1 0x46 JUMPI PUSH1 0x0 CALLDATALOAD PUSH1 0xE0 SHR DUP1 PUSH4 0x3173D589 EQ PUSH1 0x4B JUMPI DUP1 PUSH4 0x4FB2E0BE EQ PUSH1 0x6B JUMPI DUP1 PUSH4 0xA1B1DF9C EQ PUSH1 0x87 JUMPI DUP1 PUSH4 0xD297A89F EQ PUSH1 0xA7 JUMPI JUMPDEST PUSH1 0x0 DUP1 REVERT JUMPDEST PUSH1 0x51 PUSH1 0xC3 JUMP JUMPDEST PUSH1 0x40 MLOAD DUP1 DUP3 ISZERO ISZERO ISZERO ISZERO DUP2 MSTORE PUSH1 0x20 ADD SWAP2 POP POP PUSH1 0x40 MLOAD DUP1 SWAP2 SUB SWAP1 RETURN JUMPDEST PUSH1 0x71 PUSH1 0xD5 JUMP JUMPDEST PUSH1 0x40 MLOAD DUP1 DUP3 DUP2 MSTORE PUSH1 0x20 ADD SWAP2 POP POP PUSH1 0x40 MLOAD DUP1 SWAP2 SUB SWAP1 RETURN JUMPDEST PUSH1 0x8D PUSH1 0xDB JUMP JUMPDEST PUSH1 0x40 MLOAD DUP1 DUP3 ISZERO ISZERO ISZERO ISZERO DUP2 MSTORE PUSH1 0x20 ADD SWAP2 POP POP PUSH1 0x40 MLOAD DUP1 SWAP2 SUB SWAP1 RETURN JUMPDEST PUSH1 0xAD PUSH1 0xE6 JUMP JUMPDEST PUSH1 0x40 MLOAD DUP1 DUP3 DUP2 MSTORE PUSH1 0x20 ADD SWAP2 POP POP PUSH1 0x40 MLOAD DUP1 SWAP2 SUB SWAP1 RETURN JUMPDEST PUSH1 0x0 PUSH8 0xDE0B6B3A7640000 DUP1 EQ SWAP1 POP SWAP1 JUMP JUMPDEST PUSH1 0x0 SLOAD DUP2 JUMP JUMPDEST PUSH1 0x0 PUSH1 0x1 DUP1 EQ SWAP1 POP SWAP1 JUMP JUMPDEST PUSH1 0x1 SLOAD DUP2 JUMP INVALID LOG2 PUSH6 0x627A7A723158 KECCAK256 0xD4 STOP 0xDB SWAP2 PUSH11 0xF299CD9DA7709D94751DC5 CALLDATASIZE 0xA7 DUP7 0x4C XOR SWAP7 0xFC LOG3 0xDA 0xA6 MUL 0xC5 PUSH3 0xBC1B54 PUSH5 0x736F6C6343 STOP SDIV GT STOP ORIGIN "
		},
		"gasEstimates": {
			"creation": {
				"codeDepositCost": "57800",
				"executionCost": "40123",
				"totalCost": "97923"
			},
			"external": {
				"oneEther()": "1049",
				"oneWei()": "1005",
				"testOneEther()": "209",
				"testOneWei()": "253"
			}
		},
		"methodIdentifiers": {
			"oneEther()": "d297a89f",
			"oneWei()": "4fb2e0be",
			"testOneEther()": "3173d589",
			"testOneWei()": "a1b1df9c"
		}
	},
	"abi": [
		{
			"constant": true,
			"inputs": [],
			"name": "oneEther",
			"outputs": [
				{
					"internalType": "uint256",
					"name": "",
					"type": "uint256"
				}
			],
			"payable": false,
			"stateMutability": "view",
			"type": "function"
		},
		{
			"constant": true,
			"inputs": [],
			"name": "oneWei",
			"outputs": [
				{
					"internalType": "uint256",
					"name": "",
					"type": "uint256"
				}
			],
			"payable": false,
			"stateMutability": "view",
			"type": "function"
		},
		{
			"constant": true,
			"inputs": [],
			"name": "testOneEther",
			"outputs": [
				{
					"internalType": "bool",
					"name": "",
					"type": "bool"
				}
			],
			"payable": false,
			"stateMutability": "view",
			"type": "function"
		},
		{
			"constant": true,
			"inputs": [],
			"name": "testOneWei",
			"outputs": [
				{
					"internalType": "bool",
					"name": "",
					"type": "bool"
				}
			],
			"payable": false,
			"stateMutability": "view",
			"type": "function"
		}
	]
}