{
	"data": {
		"bytecode": {
			"linkReferences": {},
			"object": "60806040526001600055670de0b6b3a7640000600155600060025534801561002657600080fd5b506101d4806100366000396000f3fe608060405234801561001057600080fd5b506004361061007d5760003560e01c8063a1b1df9c1161005b578063a1b1df9c146100e0578063a92100cb14610102578063d297a89f1461010c578063e5aa3d581461012a5761007d565b80633173d589146100825780634fb2e0be146100a45780635bc758e2146100c2575b600080fd5b61008a610148565b604051808215151515815260200191505060405180910390f35b6100ac61015a565b6040518082815260200191505060405180910390f35b6100ca610160565b6040518082815260200191505060405180910390f35b6100e8610168565b604051808215151515815260200191505060405180910390f35b61010a610173565b005b610114610193565b6040518082815260200191505060405180910390f35b610132610199565b6040518082815260200191505060405180910390f35b6000670de0b6b3a76400008014905090565b60005481565b60003a905090565b600060018014905090565b5b600115610191576001600260008282540192505081905550610174565b565b60015481565b6002548156fea265627a7a72315820ac44c75b9218356df0284d392cdfb619a1c36a25a70071fad2c2bc7b731f675664736f6c63430005110032",
			"opcodes": "PUSH1 0x80 PUSH1 0x40 MSTORE PUSH1 0x1 PUSH1 0x0 SSTORE PUSH8 0xDE0B6B3A7640000 PUSH1 0x1 SSTORE PUSH1 0x0 PUSH1 0x2 SSTORE CALLVALUE DUP1 ISZERO PUSH2 0x26 JUMPI PUSH1 0x0 DUP1 REVERT JUMPDEST POP PUSH2 0x1D4 DUP1 PUSH2 0x36 PUSH1 0x0 CODECOPY PUSH1 0x0 RETURN INVALID PUSH1 0x80 PUSH1 0x40 MSTORE CALLVALUE DUP1 ISZERO PUSH2 0x10 JUMPI PUSH1 0x0 DUP1 REVERT JUMPDEST POP PUSH1 0x4 CALLDATASIZE LT PUSH2 0x7D JUMPI PUSH1 0x0 CALLDATALOAD PUSH1 0xE0 SHR DUP1 PUSH4 0xA1B1DF9C GT PUSH2 0x5B JUMPI DUP1 PUSH4 0xA1B1DF9C EQ PUSH2 0xE0 JUMPI DUP1 PUSH4 0xA92100CB EQ PUSH2 0x102 JUMPI DUP1 PUSH4 0xD297A89F EQ PUSH2 0x10C JUMPI DUP1 PUSH4 0xE5AA3D58 EQ PUSH2 0x12A JUMPI PUSH2 0x7D JUMP JUMPDEST DUP1 PUSH4 0x3173D589 EQ PUSH2 0x82 JUMPI DUP1 PUSH4 0x4FB2E0BE EQ PUSH2 0xA4 JUMPI DUP1 PUSH4 0x5BC758E2 EQ PUSH2 0xC2 JUMPI JUMPDEST PUSH1 0x0 DUP1 REVERT JUMPDEST PUSH2 0x8A PUSH2 0x148 JUMP JUMPDEST PUSH1 0x40 MLOAD DUP1 DUP3 ISZERO ISZERO ISZERO ISZERO DUP2 MSTORE PUSH1 0x20 ADD SWAP2 POP POP PUSH1 0x40 MLOAD DUP1 SWAP2 SUB SWAP1 RETURN JUMPDEST PUSH2 0xAC PUSH2 0x15A JUMP JUMPDEST PUSH1 0x40 MLOAD DUP1 DUP3 DUP2 MSTORE PUSH1 0x20 ADD SWAP2 POP POP PUSH1 0x40 MLOAD DUP1 SWAP2 SUB SWAP1 RETURN JUMPDEST PUSH2 0xCA PUSH2 0x160 JUMP JUMPDEST PUSH1 0x40 MLOAD DUP1 DUP3 DUP2 MSTORE PUSH1 0x20 ADD SWAP2 POP POP PUSH1 0x40 MLOAD DUP1 SWAP2 SUB SWAP1 RETURN JUMPDEST PUSH2 0xE8 PUSH2 0x168 JUMP JUMPDEST PUSH1 0x40 MLOAD DUP1 DUP3 ISZERO ISZERO ISZERO ISZERO DUP2 MSTORE PUSH1 0x20 ADD SWAP2 POP POP PUSH1 0x40 MLOAD DUP1 SWAP2 SUB SWAP1 RETURN JUMPDEST PUSH2 0x10A PUSH2 0x173 JUMP JUMPDEST STOP JUMPDEST PUSH2 0x114 PUSH2 0x193 JUMP JUMPDEST PUSH1 0x40 MLOAD DUP1 DUP3 DUP2 MSTORE PUSH1 0x20 ADD SWAP2 POP POP PUSH1 0x40 MLOAD DUP1 SWAP2 SUB SWAP1 RETURN JUMPDEST PUSH2 0x132 PUSH2 0x199 JUMP JUMPDEST PUSH1 0x40 MLOAD DUP1 DUP3 DUP2 MSTORE PUSH1 0x20 ADD SWAP2 POP POP PUSH1 0x40 MLOAD DUP1 SWAP2 SUB SWAP1 RETURN JUMPDEST PUSH1 0x0 PUSH8 0xDE0B6B3A7640000 DUP1 EQ SWAP1 POP SWAP1 JUMP JUMPDEST PUSH1 0x0 SLOAD DUP2 JUMP JUMPDEST PUSH1 0x0 GASPRICE SWAP1 POP SWAP1 JUMP JUMPDEST PUSH1 0x0 PUSH1 0x1 DUP1 EQ SWAP1 POP SWAP1 JUMP JUMPDEST JUMPDEST PUSH1 0x1 ISZERO PUSH2 0x191 JUMPI PUSH1 0x1 PUSH1 0x2 PUSH1 0x0 DUP3 DUP3 SLOAD ADD SWAP3 POP POP DUP2 SWAP1 SSTORE POP PUSH2 0x174 JUMP JUMPDEST JUMP JUMPDEST PUSH1 0x1 SLOAD DUP2 JUMP JUMPDEST PUSH1 0x2 SLOAD DUP2 JUMP INVALID LOG2 PUSH6 0x627A7A723158 KECCAK256 0xAC DIFFICULTY 0xC7 JUMPDEST SWAP3 XOR CALLDATALOAD PUSH14 0xF0284D392CDFB619A1C36A25A700 PUSH18 0xFAD2C2BC7B731F675664736F6C6343000511 STOP ORIGIN "
		},
		"gasEstimates": {
			"creation": {
				"codeDepositCost": "93600",
				"executionCost": "45159",
				"totalCost": "138759"
			},
			"external": {
				"gasRefund()": "257",
				"i()": "1071",
				"loop()": "infinite",
				"oneEther()": "1049",
				"oneWei()": "1028",
				"testOneEther()": "232",
				"testOneWei()": "231"
			}
		},
		"methodIdentifiers": {
			"gasRefund()": "5bc758e2",
			"i()": "e5aa3d58",
			"loop()": "a92100cb",
			"oneEther()": "d297a89f",
			"oneWei()": "4fb2e0be",
			"testOneEther()": "3173d589",
			"testOneWei()": "a1b1df9c"
		}
	},
	"abi": [
		{
			"constant": false,
			"inputs": [],
			"name": "gasRefund",
			"outputs": [
				{
					"internalType": "uint256",
					"name": "",
					"type": "uint256"
				}
			],
			"payable": false,
			"stateMutability": "nonpayable",
			"type": "function"
		},
		{
			"constant": true,
			"inputs": [],
			"name": "i",
			"outputs": [
				{
					"internalType": "uint256",
					"name": "",
					"type": "uint256"
				}
			],
			"payable": false,
			"stateMutability": "view",
			"type": "function"
		},
		{
			"constant": false,
			"inputs": [],
			"name": "loop",
			"outputs": [],
			"payable": false,
			"stateMutability": "nonpayable",
			"type": "function"
		},
		{
			"constant": true,
			"inputs": [],
			"name": "oneEther",
			"outputs": [
				{
					"internalType": "uint256",
					"name": "",
					"type": "uint256"
				}
			],
			"payable": false,
			"stateMutability": "view",
			"type": "function"
		},
		{
			"constant": true,
			"inputs": [],
			"name": "oneWei",
			"outputs": [
				{
					"internalType": "uint256",
					"name": "",
					"type": "uint256"
				}
			],
			"payable": false,
			"stateMutability": "view",
			"type": "function"
		},
		{
			"constant": true,
			"inputs": [],
			"name": "testOneEther",
			"outputs": [
				{
					"internalType": "bool",
					"name": "",
					"type": "bool"
				}
			],
			"payable": false,
			"stateMutability": "view",
			"type": "function"
		},
		{
			"constant": true,
			"inputs": [],
			"name": "testOneWei",
			"outputs": [
				{
					"internalType": "bool",
					"name": "",
					"type": "bool"
				}
			],
			"payable": false,
			"stateMutability": "view",
			"type": "function"
		}
	]
}